:1000000019C0A2C027C026C025C024C023C022C05A
:1000100021C020C01FC01EC01DC01CC020C11AC0EE
:1000200019C018C017C016C015C014C013C012C024
:1000300011C010C011241FBECFEFD2E0DEBFCDBF74
:1000400011E0A0E0B1E001C01D92A533B107E1F7D6
:1000500002D03CC1D5CFEF92FF920F931F93CF9365
:10006000DF9317D169D03B9AF999FECF84E190E0F4
:1000700017D1082F8093310110920301882389F052
:10008000C0E0D0E0CE01805090400AD1FE01E85F90
:10009000FE4F80839E012F5F209303012196C0179E
:1000A00088F37894F0901C0138E0E32EF0FC0AC04D
:1000B000329BFECF80916E008D7F80936E00329BCD
:1000C000F7CFF8CF329B05C080916E008D7F809373
:1000D0006E003EEFF322023058F180911D017091C5
:1000E0000801AEE1B1E0E9E0F1E061E012C0A90190
:1000F000481B590B820F931F969587959695879568
:100100008417950798F26F5F11963196601780F407
:10011000812F1C91719F900111247081879FC001D4
:1001200011248217930718F3AC01421B530BE2CF43
:1001300088B18E2588B9BACF83E08093690081E0C9
:100140008DBB80E88FBF08951F920F920FB60F925C
:1001500011242F933F934F935F936F937F938F93CC
:100160009F93AF93BF93EF93FF9380916E0081FDB8
:100170001FC080916E00826080936E00809132017A
:10018000813009F45DC08130A0F510923301FF91F8
:10019000EF91BF91AF919F918F917F916F915F91FF
:1001A0004F913F912F910F900FBE0F901F90189578
:1001B00080913201823049F1909133018091340174
:1001C000E92FF0E0E35EFE4F80839F5F9093330161
:1001D00010923401809131019817C9F680916E0018
:1001E0008D7F80936E0080911C01816080931C0143
:1001F000CECF823061F610923201F999C6CF84E1F8
:1002000090E06091310154D0C0CF209131018091B4
:100210003401422F50E0FA01E85FFE4F8083F99BE2
:1002200015C0822F8F5F8093310110923401843189
:1002300009F0ADCF80916E008D7F80936E00A7CFC7
:1002400082E08093320110923101A1CF609134019C
:10025000CA01805090402CD020913101E2CF1F92F2
:100260000F920FB60F9211248F93809134018F5FFC
:100270008093340180913401882329F480916E00A9
:100280008D7F80936E008F910F900FBE0F901F9007
:10029000189582E084BD85E085BD8AE587BD089517
:1002A000F999FECF12BC81BDF89A992780B50895BF
:1002B000262FF999FECF1FBA12BC81BD20BD0FB603
:1002C000F894FA9AF99A0FBE01960895F894FFCF20
:00000001FF
