:1000000010C01FC01EC01DC01CC01BC01AC019C01C
:1000100018C017C016C015C014C013C0BEC011C090
:1000200010C011241FBECFE5D2E0DEBFCDBF10E06F
:10003000A0E6B0E001C01D92AF3AB107E1F702D0EF
:100040009DC1DECF1F934BD1CBD0C0D02BD07894A5
:1000500011E013C080916000893CC8F48F5F8093E9
:100060006000819906C089B78E7F89BF1093AD006B
:10007000A9988091610080FD0EC0829BEBCF80919A
:100080006000882371F3815080936000EACF109262
:1000900060000DD0E6CF809161008E7F809361007B
:1000A000A7D0EBCF1092610010926200089509B6BC
:1000B00000FC15C01092630089B7816089BF8091F0
:1000C000AD00813009F454C0813030F0823079F5D0
:1000D0001092AD00E19B52C0109262000895809191
:1000E000AD00823059F1E091AE00F0E08091630004
:1000F000E457FF4F80838091AE008F5F8093AE0006
:10010000109263008091AE00803210F01092AE0029
:10011000209162008091AC0030E090E001972817B8
:10012000390734F4809162008F5F809362000895F4
:10013000809161008160809361000895E091AC003E
:10014000F0E080916300E459FF4F8083E19B1CC085
:100150008091AC008F5F8093AC001092630080911F
:10016000AC00803220F389B78E7F89BFA99A0895A9
:1001700082E08093AD001092AC0008956091AC00D5
:1001800080E290E0EED0A8CF8091AC006091630057
:1001900090E080509040E5D0DBCF1F920F920FB6D9
:1001A0000F9211248F93809163008F5F809363007F
:1001B00080916300882321F489B78E7F89BFA99A33
:1001C0008F910F900FBE0F901F90189588E083BFFE
:1001D00083B7846083BF84EB81BF1092630008956E
:1001E00084E084BBAA9AA19AA99AA09AA89A089591
:1001F0000F931F93CF93DF934091AC0041504093F6
:1002000067008091AE00815080936400442309F41C
:1002100048C00FE112C0FE01E21BF30BC9018C0FB5
:100220009D1F65E070E081D06E177F0708F442C023
:100230004150812F8150442321F11FE1801708F4A0
:10024000182F842F90E0FC01E559FF4F3081E12FFA
:10025000F0E0DF01A457BF4F2C91239FE001112450
:10026000E557FF4F208184599F4FFC018081289FD3
:10027000900111242C173D0770F2F901EC1BFD0BC6
:10028000CDCF3093660020936500D0936B00C09370
:100290006A00F0936900E093680010926700809311
:1002A000640085B394E0892785BBDF91CF911F91CE
:1002B0000F9108953093660020936500D0936B00F2
:1002C000C0936A00F0936900E09368004093670070
:1002D00010936400DF91CF911F910F910895FF92C9
:1002E0000F931F931092AD00E199FECF80E290E052
:1002F00030D08093AC008091AC00882381F0FF2443
:100300000F2D10E0C8018050904023D004591F4F9A
:10031000F8018083F3948091AC00F81688F3109272
:10032000AE001F910F91FF900895AA1BBB1B51E1D6
:1003300007C0AA1FBB1FA617B70710F0A61BB70B55
:10034000881F991F5A95A9F780959095BC01CD01FA
:100350000895E199FECF9FBB8EBBE09A99278DB39C
:100360000895262FE199FECF9FBB8EBB2DBB0FB604
:10037000F894E29AE19A0FBE01960895F894FFCF9F
:00000001FF
