:1000000019C0A7C027C026C025C024C023C022C055
:1000100021C020C01FC01EC01DC01CC02BC11AC0E3
:1000200019C018C017C016C015C014C013C012C024
:1000300011C010C011241FBECFEFD2E0DEBFCDBF74
:1000400011E0A0E0B1E001C01D92A533B107E1F7D6
:1000500002D04EC1D5CFFF920F931F932DD125D142
:1000600070D0F999FECF84E190E02CD180933101DA
:100070001092030180913101882391F0FF240F2D0C
:1000800010E0C801805090401DD1085F1E4FF8015C
:100090008083F394F092030180913101F81678F394
:1000A000789471E004E0349B08C080916E008D7FED
:1000B00080936E0070933201439880911C0180FF01
:1000C000F2CF80911C018E7F80931C0180913101C1
:1000D000823098F161E011C09A01281B390B840F1E
:1000E000951F969587959695879582179307D8F2D1
:1000F0006F5F80913101681700F5862F90E0DC0179
:100100001197FD01E85FFE4F3081FC01E35EFE4F79
:100110002081329FA0011124A35EBE4F2C91885FE5
:100120009E4FFC018081289FC001112484179507F0
:1001300098F29C01241B350BD2CF88B1802788B957
:10014000B2CF83E08093690081E08DBB80E88FBFF0
:1001500008951F920F920FB60F9211242F933F9381
:100160004F935F936F937F938F939F93AF93BF93BF
:10017000EF93FF9380916E0081FD21C010923401B6
:1001800080916E00826080936E0080913201813098
:1001900009F461C08130B8F510923301FF91EF91FD
:1001A000BF91AF919F918F917F916F915F914F918F
:1001B0003F912F910F900FBE0F901F901895809137
:1001C0003201823061F1E0913301F0E0809134013D
:1001D000E35EFE4F8083809133018F5F8093330114
:1001E0001092340190913301809131019817B1F64A
:1001F00080916E008D7F80936E0080911C018160E4
:1002000080931C01CBCF823049F610923201F999CC
:10021000C3CF6091310184E190E05CD0BDCFE0912B
:100220003101F0E080913401E85FFE4F8083F99B5B
:1002300018C0809131018F5F809331011092340199
:1002400080913101843109F0A9CF80916E008D7FBA
:1002500080936E00A3CF82E080933201109231012F
:100260009DCF809131016091340190E080509040A9
:1002700031D0DFCF1F920F920FB60F9211248F93C0
:10028000809134018F5F8093340180913401882301
:1002900031F480916E008D7F80936E00439A8F9130
:1002A0000F900FBE0F901F90189582E084BD85E0DF
:1002B00085BD8AE587BD089584E087B9429A3B9A57
:1002C000439A0895F999FECF12BC81BDF89A9927F7
:1002D00080B50895262FF999FECF1FBA12BC81BDB3
:1002E00020BD0FB6F894FA9AF99A0FBE01960895B8
:0402F000F894FFCFB0
:00000001FF
