:1000000019C069C027C026C025C024C023C022C093
:1000100021C020C01FC01EC01DC01CC0EDC01AC022
:1000200019C018C017C016C015C014C013C012C024
:1000300011C010C011241FBECFEFD2E0DEBFCDBF74
:1000400011E0A0E0B1E001C01D92A433B107E1F7D7
:1000500002D076C1D5CFFF920F931F93EFD0E7D098
:1000600032D0F999FECF84E190E054D180933101F0
:1000700080913101882381F0FF240F2D10E0C80109
:100080008050904047D1075F1E4FF8018083F39462
:1000900080913101F81688F3789401E0349B08C010
:1000A00080916E008D7F80936E00009332014398A3
:1000B0008091000180FFF2CF809100018E7F8093BC
:1000C0000001C2D0EBCF83E08093690081E08DBB5B
:1000D00080E88FBF08951F920F920FB60F921124E0
:1000E0002F933F934F935F936F937F938F939F9340
:1000F000AF93BF93EF93FF9380916E0081FD21C07A
:100100001092010180916E00826080936E00809158
:100110003201813009F461C08130B8F510923301A9
:10012000FF91EF91BF91AF919F918F917F916F91CF
:100130005F914F913F912F910F900FBE0F901F90A5
:10014000189580913201823061F1E0913301F0E045
:1001500080910101E35EFE4F8083809133018F5FC8
:10016000809333011092010190913301809131010C
:100170009817B1F680916E008D7F80936E0080910C
:100180000001816080930001CBCF823049F610924C
:100190003201F999C3CF6091310184E190E0C2D07E
:1001A000BDCFE0913101F0E080910101E75FFE4FAA
:1001B0008083F99B18C0809131018F5F809331015A
:1001C0001092010180913101843109F0A9CF809111
:1001D0006E008D7F80936E00A3CF82E0809332010A
:1001E000109231019DCF809131016091010190E029
:1001F0008050904097D0DFCF1F920F920FB60F9292
:1002000011248F93809101018F5F80930101809170
:100210000101882331F480916E008D7F80936E0000
:10022000439A8F910F900FBE0F901F90189582E008
:1002300084BD85E085BD8AE587BD089584E087B9E2
:10024000429A3B9A439A08950F931F9381E08093BB
:10025000040180913101823008F444C011E001E0D2
:1002600013C0AB01421B530BC901860F971F969514
:1002700087959695879584179507D8F11F5F80918C
:100280003101181708F5012F812F90E0DC0111973B
:10029000FD01E75FFE4F3081FC01E35EFE4F2081F0
:1002A000329FB0011124A35EBE4F2C91875F9E4FF9
:1002B000FC018081289F900111242617370788F2BE
:1002C000A901461B570BD0CF50930601409305015F
:1002D00010930401309303012093020170930801ED
:1002E0006093070188B194E0892788B91F910F9125
:1002F0000895509306014093050100930401309343
:1003000003012093020170930801609307011F917C
:100310000F910895F999FECF12BC81BDF89A9927E3
:1003200080B50895262FF999FECF1FBA12BC81BD62
:1003300020BD0FB6F894FA9AF99A0FBE0196089567
:04034000F894FFCF5F
:00000001FF
