:1000000010C045C01EC01DC01CC01BC01AC019C0F6
:1000100018C017C016C015C014C013C0CBC011C083
:1000200010C011241FBECFE5D2E0DEBFCDBF10E06F
:10003000A0E6B0E001C01D92A639B107E1F702D0F9
:1000400092C1DECF1F9354D1D7D0CDD015D07894A4
:1000500011E09C9B06C089B78E7F89BF10939400E6
:10006000AB988091600080FFF4CF809160008E7F1C
:1000700080936000C7D0EDCF83E085BF80E48BBF65
:1000800080E88FBF109260001092610008951F9267
:100090000F920FB60F9211242F933F934F935F93BC
:1000A0006F937F938F939F93AF93BF93EF93FF9340
:1000B00009B600FC1FC01092620089B7816089BF39
:1000C00080919400813009F466C08130C0F51092AF
:1000D0006100FF91EF91BF91AF919F918F917F91BF
:1000E0006F915F914F913F912F910F900FBE0F90A5
:1000F0001F90189580919400823099F1E0919500BD
:10010000F0E080916200E158FF4F8083809195007C
:100110008F5F8093950010926200809195008431EA
:1001200010F01092950090916100809193009817C3
:1001300090F4809161008F5F80936100CACF82301C
:1001400041F610929400E199C2CF6091930084E14E
:1001500090E0FCD0BCCF8091600081608093600013
:10016000B8CFE0919300F0E080916200E559FF4F35
:100170008083E19B16C0809193008F5F80939300F2
:100180001092620080919300843109F0A2CF89B768
:100190008E7F89BF9ECF82E080939400109293005F
:1001A00098CF809193006091620090E080509040E1
:1001B000CDD0E1CF1F920F920FB60F9211248F93E3
:1001C000809162008F5F809362008091620088233B
:1001D00021F489B78E7F89BFAB9A8F910F900FBEA4
:1001E0000F901F90189588E083BF85E083BF8AE554
:1001F00081BF10926200089584E084BBAA9AA39AFA
:10020000AB9A0895FF920F931F9310919300115092
:1002100010936600809195008150809363001123B4
:1002200009F44AC0F3E1FF2E13C0BA01621B730B3D
:10023000C901840F951F9695879596958795861782
:10024000970708F441C01150802F8150112321F1EC
:1002500003E18F1508F4082F812F90E0FC01E65987
:10026000FF4F3081E02FF0E0DF01A158BF4F2C910C
:10027000239FA0011124E258FF4F208185599F4FF1
:10028000FC018081289F900111242417350768F212
:10029000B901641B750BCCCF3093650020936400CB
:1002A00050936A0040936900709368006093670000
:1002B000109266008093630085B394E0892785BB24
:1002C0001F910F91FF900895309365002093640073
:1002D00050936A00409369007093680060936700D0
:1002E00010936600009363001F910F91FF90089593
:1002F000FF920F931F9310929400E199FECF84E137
:1003000090E01CD08093930080919300882381F02B
:10031000FF240F2D10E0C801805090400FD00559E8
:100320001F4FF8018083F39480919300F81688F3AF
:10033000109295001F910F91FF900895E199FECFC3
:100340009FBB8EBBE09A99278DB30895262FE19924
:10035000FECF9FBB8EBB2DBB0FB6F894E29AE19AFD
:0A0360000FBE01960895F894FFCF38
:00000001FF
