:1000000019C028C050C026C025C024C023C022C0AB
:1000100021C020C01FC01EC01DC01CC0E1C01AC02E
:1000200019C018C017C016C015C014C013C012C024
:1000300011C010C011241FBECFEFD2E0DEBFCDBF74
:1000400011E0A0E0B1E001C01D92AE34B107E1F7CC
:1000500002D0B7C1D5CF1F9364D1E6D0DCD017D082
:10006000789411E04A9908C080916E008D7F80934A
:100070006E0010934C0129988091000180FFF2CF0F
:10008000809100018E7F80930001D4D0EBCF8CE073
:100090008093690082E08DBB80E88FBF10920001E1
:1000A0001092010108951F920F920FB60F92112422
:1000B0002F933F934F935F936F937F938F939F9370
:1000C000AF93BF93EF93FF9380916E0081FD21C0AA
:1000D0001092020180916E00826080936E00809188
:1000E0004C01813009F46DC08130E0F510920101BE
:1000F000FF91EF91BF91AF919F918F917F916F9100
:100100005F914F913F912F910F900FBE0F901F90D5
:10011000189580914C018230B9F1E0914D01F0E0E9
:1001200080910201E55DFE4F808380914D018F5FDC
:1001300080934D011092020180914D01803210F0A8
:1001400010924D012091010180914B0130E090E02F
:1001500001972817390794F4809101018F5F8093EC
:100160000101C6CF823021F610924C01F999BECF21
:1001700060914B0180E290E016D1B8CF80910001F0
:10018000816080930001B4CFE0914B01F0E0809159
:100190000201E55FFE4F8083F99B19C080914B01FE
:1001A0008F5F80934B011092020180914B0180324E
:1001B00008F49ECF80916E008D7F80936E00299A07
:1001C00097CF82E080934C0110924B0191CF8091A8
:1001D0004B016091020190E080509040E4D0DECF6E
:1001E0001F920F920FB60F9211248F9380910201EC
:1001F0008F5F8093020180910201882331F4809106
:100200006E008D7F80936E00299A8F910F900FBEA4
:100210000F901F90189582E084BD84E085BD8EE12B
:1002200087BD10920201089584E084B92A9A219A28
:10023000299A08950F931F93CF93DF9340914B0119
:1002400041504093060180914D01815080930301FC
:10025000442309F448C00FE112C0FE01E21BF30B76
:10026000C9018C0F9D1F65E070E081D06E177F077C
:1002700008F442C04150812F8150442321F11FE1F5
:10028000801708F4182F842F90E0FC01E65FFE4FE2
:100290003081E12FF0E0DF01A55DBE4F2C91239F5F
:1002A000E0011124E65DFE4F2081855F9E4FFC0139
:1002B0008081289F900111242C173D0770F2F901CD
:1002C000EC1BFD0BCDCF3093050120930401D0939F
:1002D0000A01C0930901F0930801E093070110920D
:1002E00006018093030185B194E0892785B9DF91E8
:1002F000CF911F910F910895309305012093040130
:10030000D0930A01C0930901F0930801E09307011B
:100310004093060110930301DF91CF911F910F913C
:100320000895FF920F931F9310924C01F999FECFFD
:1003300080E290E030D080934B0180914B01882384
:1003400081F0FF240F2D10E0C8018050904023D091
:10035000055F1E4FF8018083F39480914B01F816DE
:1003600088F310924D011F910F91FF900895AA1BE1
:10037000BB1B51E107C0AA1FBB1FA617B70710F090
:10038000A61BB70B881F991F5A95A9F780959095C2
:10039000BC01CD010895F999FECF12BC81BDF89A38
:1003A000992780B50895262FF999FECF1FBA12BC60
:1003B00081BD20BD0FB6F894FA9AF99A0FBE019646
:0603C0000895F894FFCF40
:00000001FF
