:1000000010C045C01EC01DC01CC01BC01AC019C0F6
:1000100018C017C016C015C014C013C0D4C011C07A
:1000200010C011241FBECFE5D2E0DEBFCDBF10E06F
:10003000A0E6B0E001C01D92AE3AB107E1F702D0F0
:10004000B3C1DECF1F9361D1E1D0D6D015D0789463
:1000500011E0819906C089B78E7F89BF1093AC00EB
:10006000A9988091600080FFF4CF809160008E7F1E
:1000700080936000D3D0EDCF82E085BF80E48BBF5A
:1000800080E88FBF109260001092610008951F9267
:100090000F920FB60F9211242F933F934F935F93BC
:1000A0006F937F938F939F93AF93BF93EF93FF9340
:1000B00009B600FC25C01092620089B7816089BF33
:1000C0008091AC00813009F448C0813030F082303A
:1000D00031F41092AC00E19B67C010926100FF9177
:1000E000EF91BF91AF919F918F917F916F915F91B0
:1000F0004F913F912F910F900FBE0F901F90189529
:10010000809162008F3058F38091AC00823059F1B9
:10011000E091AD00F0E080916200E557FF4F8083F1
:100120008091AD008F5F8093AD001092620080914E
:10013000AD00803210F01092AD00209161008091EE
:10014000AB0030E090E00197281739073CF580912B
:1001500061008F5F80936100C2CF82E08093AC002A
:100160001092AB00BCCFE091AB00F0E08091620058
:10017000E559FF4F8083E19B1DC08091AB008F5FED
:100180008093AB00109262008091AB00803208F443
:10019000A6CF89B78E7F89BFA99AA1CF8091600031
:1001A0008160809360009BCF6091AB0080E290E023
:1001B000EED093CF8091AB006091620090E08050D0
:1001C0009040E5D0DACF1F920F920FB60F92112414
:1001D0008F93809162008F5F8093620080916200B4
:1001E000882321F489B78E7F89BFA99A8F910F90B8
:1001F0000FBE0F901F90189588E083BF83B784606F
:1002000083BF84EB81BF10926200089584E084BBB9
:10021000AA9AA19AA99AA09AA89A08950F931F93AF
:10022000CF93DF934091AB004150409366008091A3
:10023000AD00815080936300442309F448C00FE16E
:1002400012C0FE01E21BF30BC9018C0F9D1F65E07C
:1002500070E081D06E177F0708F442C04150812FB3
:100260008150442321F11FE1801708F4182F842FB7
:1002700090E0FC01E659FF4F3081E12FF0E0DF0113
:10028000A557BF4F2C91239FE0011124E657FF4F44
:10029000208185599F4FFC018081289F9001112466
:1002A0002C173D0770F2F901EC1BFD0BCDCF3093FD
:1002B000650020936400D0936A00C0936900F093B6
:1002C0006800E0936700109266008093630085B336
:1002D00094E0892785BBDF91CF911F910F910895FD
:1002E0003093650020936400D0936A00C093690046
:1002F000F0936800E09367004093660010936300FA
:10030000DF91CF911F910F910895FF920F931F934B
:100310001092AC00E199FECF80E290E030D0809363
:10032000AB008091AB00882381F0FF240F2D10E0FB
:10033000C8018050904023D005591F4FF801808399
:10034000F3948091AB00F81688F31092AD001F91E2
:100350000F91FF900895AA1BBB1B51E107C0AA1F74
:10036000BB1FA617B70710F0A61BB70B881F991F56
:100370005A95A9F780959095BC01CD010895E19912
:10038000FECF9FBB8EBBE09A99278DB30895262F91
:10039000E199FECF9FBB8EBB2DBB0FB6F894E29ABE
:0C03A000E19A0FBE01960895F894FFCF7B
:00000001FF
