:1000000019C028C027C026C025C024C023C022C0D4
:1000100021C020C01FC01EC01DC01CC0E3C01AC02C
:1000200019C018C017C016C015C014C013C012C024
:1000300011C010C011241FBECFEFD2E0DEBFCDBF74
:1000400011E0A0E0B1E001C01D92A035B107E1F7D9
:1000500007D0B9C1D5CF80917800909179000895EB
:100060000F931F9360D1E2D0D8D03CD0789411E0A8
:1000700003E080917A00806480937A0004C08091CC
:100080007A0086FF18C04A9908C080916E008D7F63
:1000900080936E0010934E0129988091020180FF99
:1000A000EECF809102018E7F80930201C5D08091B6
:1000B0007A0086FDE8CF2091780030917900209376
:1000C000000130E0809101018695809FC0011124DC
:1000D000821793072CF08091000180930101C9CF12
:1000E00006D0F9CF10920201109203010895809179
:1000F0006E0081FD17C01092040180916E00826035
:1001000080936E0080914E01813009F456C0813099
:1001100030F0823079F510924E01F99B54C0109264
:100120000301089580914E01823059F1E0914F0111
:10013000F0E080910401E35DFE4F808380914F01E8
:100140008F5F80934F011092040180914F018032A4
:1001500010F010924F012091030180914D0130E089
:1001600090E001972817390734F4809103018F5FDD
:1001700080930301089580910201816080930201C0
:100180000895E0914D01F0E080910401E35FFE4F9E
:100190008083F99B1EC080914D018F5F80934D013C
:1001A0001092040180914D01803220F380916E0005
:1001B0008D7F80936E00299A089582E080934E018E
:1001C00010924D01089560914D0180E290E0EDD0D4
:1001D000A6CF80914D016091040190E08050904045
:1001E000E4D0D9CF1F920F920FB60F9211248F93A4
:1001F000809104018F5F8093040180910401882322
:1002000031F480916E008D7F80936E00299A8F91DA
:100210000F900FBE0F901F90189582E084BD84E070
:1002200085BD8EE187BD10920401089584E084B9F4
:100230002A9A219A299A08950F931F93CF93DF93B7
:1002400040914D0141504093080180914F018150F0
:1002500080930501442309F448C00FE112C0FE0158
:10026000E21BF30BC9018C0F9D1F65E070E081D08C
:100270006E177F0708F442C04150812F81504423FC
:1002800021F11FE1801708F4182F842F90E0FC0162
:10029000E45FFE4F3081E12FF0E0DF01A35DBE4F50
:1002A0002C91239FE0011124E45DFE4F2081835FA8
:1002B0009E4FFC018081289F900111242C173D073F
:1002C00070F2F901EC1BFD0BCDCF309307012093A9
:1002D0000601D0930C01C0930B01F0930A01E09347
:1002E0000901109208018093050185B194E08927E6
:1002F00085B9DF91CF911F910F9108953093070138
:1003000020930601D0930C01C0930B01F0930A01D6
:10031000E09309014093080110930501DF91CF910B
:100320001F910F910895FF920F931F9310924E010A
:10033000F999FECF80E290E030D080934D0180911A
:100340004D01882381F0FF240F2D10E0C80180505B
:10035000904023D0035F1E4FF8018083F394809177
:100360004D01F81688F310924F011F910F91FF90E5
:100370000895AA1BBB1B51E107C0AA1FBB1FA617EC
:10038000B70710F0A61BB70B881F991F5A95A9F73E
:1003900080959095BC01CD010895F999FECF12BCCE
:1003A00081BDF89A992780B50895262FF999FECF37
:1003B0001FBA12BC81BD20BD0FB6F894FA9AF99A03
:0A03C0000FBE01960895F894FFCFD8
:00000001FF
