:1000000019C07DC027C026C025C024C023C022C07F
:1000100021C020C01FC01EC01DC01CC0DDC01AC032
:1000200019C018C017C016C015C014C013C012C024
:1000300011C010C011241FBECFEFD2E0DEBFCDBF74
:1000400011E0A0E0B1E001C01D92A533B107E1F7D6
:1000500002D0E3C0D5CFEF92FF920F931F93D6D07B
:10006000B3D03B9A789400913101F0901C0138E0B4
:10007000E32EF0FC0AC0329BFECF80916E008D7F94
:1000800080936E00329BF7CFF8CF329B05C08091F2
:100090006E008D7F80936E008EEFF822023058F153
:1000A00080911D0170910801AEE1B1E0E9E0F1E05D
:1000B00061E012C0A901481B590B820F931F96954E
:1000C0008795969587958417950798F26F5F119697
:1000D0003196601780F4812F1C91719F900111243B
:1000E0007081879FC00111248217930718F3AC0118
:1000F000421B530BE2CF88B18E2588B9BACF1F922D
:100100000F920FB60F9211248F939F93EF93FF934B
:1001100080916E0081FD1BC080916E008260809393
:100120006E0080913201813009F448C0813010F0B6
:10013000823021F41092320110923301FF91EF913D
:100140009F918F910F900FBE0F901F9018958091E7
:1001500032018230E9F09091330180913401E92F2E
:10016000F0E0E35EFE4F80839F5F90933301109237
:10017000340180913101981709F780916E008D7FCD
:1001800080936E0080911C01816080931C01D6CF0A
:100190008091310190913401E82FF0E0E85FFE4F4B
:1001A00090838F5F8093310110923401843131F656
:1001B00080916E008D7F80936E00C0CF82E080932F
:1001C000320110923101BACF83E08093690081E05F
:1001D0008DBB80E88FBF08951F920F920FB60F92CC
:1001E00011248F93809134018F5F8093340180912B
:1001F0003401882329F480916E008D7F80936E00F6
:100200008F910F900FBE0F901F90189582E084BDC4
:0E02100085E085BD8AE587BD0895F894FFCF8F
:00000001FF
