:1000000019C051C027C026C025C024C023C022C0AB
:1000100021C020C01FC01EC01DC01CC0DCC01AC033
:1000200019C018C017C016C015C014C013C012C024
:1000300011C010C011241FBECFEFD2E0DEBFCDBF74
:1000400011E0A0E0B1E001C01D92A633B107E1F7D5
:1000500002D09DC1D5CF1F935ED1E1D0D7D017D0AC
:10006000789411E0349B08C080916E008D7F80935E
:100070006E001093340143988091000180FFF2CF0D
:10008000809100018E7F80930001CFD0EBCF83E081
:100090008093690081E08DBB80E88FBF10920001E2
:1000A0001092010108951F920F920FB60F92112422
:1000B0002F933F934F935F936F937F938F939F9370
:1000C000AF93BF93EF93FF9380916E0081FD21C0AA
:1000D0001092020180916E00826080936E00809188
:1000E0003401813009F468C08130C0F510920101FB
:1000F000FF91EF91BF91AF919F918F917F916F9100
:100100005F914F913F912F910F900FBE0F901F90D5
:10011000189580913401823099F1E0913501F0E039
:1001200080910201E15EFE4F8083809135018F5FF7
:10013000809335011092020180913501843110F0D5
:10014000109235019091010180913301981790F43C
:10015000809101018F5F80930101CACF823041F607
:1001600010923401F999C2CF6091330184E190E09B
:1001700000D1BCCF80910001816080930001B8CF95
:10018000E0913301F0E080910201E55FFE4F808352
:10019000F99B18C0809133018F5F809333011092D7
:1001A000020180913301843109F0A2CF80916E0069
:1001B0008D7F80936E009CCF82E0809334011092FB
:1001C000330196CF809133016091020190E080501D
:1001D0009040CFD0DFCF1F920F920FB60F92112415
:1001E0008F93809102018F5F8093020180910201C1
:1001F000882331F480916E008D7F80936E00439A46
:100200008F910F900FBE0F901F90189582E084BDC4
:1002100085E085BD8AE587BD10920201089584E0DE
:1002200087B9429A3B9A439A0895FF920F931F937E
:1002300010913301115010930601809135018150C6
:1002400080930301112309F44AC0F3E1FF2E13C088
:10025000BA01621B730BC901840F951F9695879590
:10026000969587958617970708F441C01150802FFF
:100270008150112321F103E18F1508F4082F812FFC
:1002800090E0FC01E65FFE4F3081E02FF0E0DF01FF
:10029000A15EBE4F2C91239FA0011124E25EFE4F70
:1002A0002081855F9E4FFC018081289F9001112451
:1002B0002417350768F2B901641B750BCCCF309356
:1002C00005012093040150930A01409309017093A2
:1002D000080160930701109206018093030188B121
:1002E00094E0892788B91F910F91FF90089530936A
:1002F00005012093040150930A0140930901709372
:1003000008016093070110930601009303011F91F8
:100310000F91FF900895FF920F931F931092340155
:10032000F999FECF84E190E01CD080933301809155
:100330003301882381F0FF240F2D10E0C801805085
:1003400090400FD0055F1E4FF8018083F394809199
:100350003301F81688F3109235011F910F91FF9029
:100360000895F999FECF12BC81BDF89A992780B5FE
:100370000895262FF999FECF1FBA12BC81BD20BD6A
:100380000FB6F894FA9AF99A0FBE01960895F89468
:02039000FFCF9D
:00000001FF
