:1000000019C0A0C027C026C025C024C023C022C05C
:1000100021C020C01FC01EC01DC01CC000C11AC00E
:1000200019C018C017C016C015C014C013C012C024
:1000300011C010C011241FBECFEFD2E0DEBFCDBF74
:1000400011E0A0E0B1E001C01D92A433B107E1F7D7
:1000500002D008C1D5CFDF92EF92FF920F931F938A
:10006000CF93DF93F6D0D1D03B9A7894E0903001D3
:10007000F090310100911B01A8E0DA2E202F30E032
:1000800021703070329B07C080916E008D7F80930D
:100090006E00FF24F39421153105A1F30E7F11E0CA
:1000A00031C0A12FB0E0FD013197CF01895F9E4F94
:1000B0009D01245E3E4FEC019881E9018881989F63
:1000C000B0011124E45EFE4FA95FBE4F90818C9178
:1000D000989F900111242617370720F4AB01421B8B
:1000E000530B03C0A901461B570BE12FEF5FC9015A
:1000F000860F971F969587959695879584179507F0
:1001000038F01E2F1E1568F288B18D2588B9B6CF3C
:10011000F0923101309301012093000170930601A8
:1001200060930501509304014093030100931B0168
:1001300010930201DF91CF911F910F91FF90EF90EB
:10014000DF9008951F920F920FB60F9211242F93F4
:100150003F938F939F93EF93FF9380916E009091C5
:10016000310181FF16C080916E00826080936E0025
:10017000913049F0913010F09230E1F51092310158
:100180001092320137C082E0809331011092300129
:1001900031C02091300130913301923099F4E22F37
:1001A000F0E0E95FFE4F3083822F8F5F8093300154
:1001B000109233018431F1F480916E008D7F809331
:1001C0006E0018C080913201E82FF0E0E45EFE4F2F
:1001D00030838F5F8093320110923301821751F484
:1001E00080916E008D7F80936E0080911B018160F5
:1001F00080931B01FF91EF919F918F913F912F91E0
:100200000F900FBE0F901F901895E9E6F0E08081E7
:100210008360808381E08DBB80E88FBF08951F924B
:100220000F920FB60F9211248F93809133018F5F3D
:100230008093330180913301882329F480916E00EB
:100240008D7F80936E008F910F900FBE0F901F9047
:10025000189584B5826084BD85B5856085BD8AE5C5
:0802600087BD0895F894FFCF5B
:00000001FF
