:1000000019C0A2C027C026C025C024C023C022C05A
:1000100021C020C01FC01EC01DC01CC026C11AC0E8
:1000200019C018C017C016C015C014C013C012C024
:1000300011C010C011241FBECFEFD2E0DEBFCDBF74
:1000400011E0A0E0B1E001C01D92A533B107E1F7D6
:1000500002D042C1D5CFEF92FF920F931F93CF935F
:10006000DF931DD169D03B9AF999FECF84E190E0EE
:100070001DD1082F8093310110920301882389F04C
:10008000C0E0D0E0CE018050904010D1FE01E85F8A
:10009000FE4F80839E012F5F209303012196C0179E
:1000A00088F37894F0901C0138E0E32EF0FC0AC04D
:1000B000329BFECF80916E008D7F80936E00329BCD
:1000C000F7CFF8CF329B05C080916E008D7F809373
:1000D0006E003EEFF322023058F180911D017091C5
:1000E0000801AEE1B1E0E9E0F1E061E012C0A90190
:1000F000481B590B820F931F969587959695879568
:100100008417950798F26F5F11963196601780F407
:10011000812F1C91719F900111247081879FC001D4
:1001200011248217930718F3AC01421B530BE2CF43
:1001300088B18E2588B9BACF83E08093690081E0C9
:100140008DBB80E88FBF08951F920F920FB60F925C
:1001500011242F933F934F935F936F937F938F93CC
:100160009F93AF93BF93EF93FF9380916E0081FDB8
:1001700021C01092340180916E00826080936E00E5
:1001800080913201813009F461C08130B8F510925C
:100190003301FF91EF91BF91AF919F918F917F912B
:1001A0006F915F914F913F912F910F900FBE0F90E4
:1001B0001F90189580913201823061F1E0913301F6
:1001C000F0E080913401E35EFE4F80838091330143
:1001D0008F5F8093330110923401909133018091AD
:1001E00031019817B1F680916E008D7F80936E007B
:1001F00080911C01816080931C01CBCF823049F635
:1002000010923201F999C3CF6091310184E190E0FD
:1002100055D0BDCFE0913101F0E080913401E85F2D
:10022000FE4F8083F99B18C0809131018F5F8093CE
:1002300031011092340180913101843109F0A9CF4C
:1002400080916E008D7F80936E00A3CF82E08093BB
:100250003201109231019DCF8091310160913401C2
:1002600090E0805090402AD0DFCF1F920F920FB6BF
:100270000F9211248F93809134018F5F809334010A
:1002800080913401882329F480916E008D7F8093C2
:100290006E008F910F900FBE0F901F90189582E007
:1002A00084BD85E085BD8AE587BD0895F999FECFB7
:1002B00012BC81BDF89A992780B50895262FF99927
:1002C000FECF1FBA12BC81BD20BD0FB6F894FA9ABA
:0C02D000F99A0FBE01960895F894FFCF34
:00000001FF
